{
  "_format": "hh-sol-artifact-1",
  "contractName": "Lottery",
  "sourceName": "contracts/Lottery.sol",
  "abi": [
    {
      "inputs": [
        {
          "internalType": "uint256",
          "name": "_interval",
          "type": "uint256"
        },
        {
          "internalType": "address",
          "name": "initialOwner",
          "type": "address"
        }
      ],
      "stateMutability": "nonpayable",
      "type": "constructor"
    },
    {
      "inputs": [],
      "name": "Lottery_FailedToWithDrawPrizePool",
      "type": "error"
    },
    {
      "inputs": [],
      "name": "Lottery_LotteryIsNotOpen",
      "type": "error"
    },
    {
      "inputs": [],
      "name": "Lottery_NotEnoughETHSent",
      "type": "error"
    },
    {
      "inputs": [],
      "name": "Lottery_NotEnoughTimeHasPassedToSelectWinner",
      "type": "error"
    },
    {
      "inputs": [],
      "name": "Lottery_NotEnoughUsersPresent",
      "type": "error"
    },
    {
      "inputs": [],
      "name": "Lottery_Only5UsersAreAllowed",
      "type": "error"
    },
    {
      "inputs": [
        {
          "internalType": "address",
          "name": "owner",
          "type": "address"
        }
      ],
      "name": "OwnableInvalidOwner",
      "type": "error"
    },
    {
      "inputs": [
        {
          "internalType": "address",
          "name": "account",
          "type": "address"
        }
      ],
      "name": "OwnableUnauthorizedAccount",
      "type": "error"
    },
    {
      "anonymous": false,
      "inputs": [
        {
          "indexed": true,
          "internalType": "address",
          "name": "userAddress",
          "type": "address"
        }
      ],
      "name": "Lottery_EmitUserEntered",
      "type": "event"
    },
    {
      "anonymous": false,
      "inputs": [
        {
          "indexed": true,
          "internalType": "address",
          "name": "winnerAddress",
          "type": "address"
        },
        {
          "indexed": false,
          "internalType": "uint256",
          "name": "prizePool",
          "type": "uint256"
        }
      ],
      "name": "Lottery_EmitUserSelectedAsWinner",
      "type": "event"
    },
    {
      "anonymous": false,
      "inputs": [],
      "name": "Lottery_Reset",
      "type": "event"
    },
    {
      "anonymous": false,
      "inputs": [
        {
          "indexed": true,
          "internalType": "address",
          "name": "previousOwner",
          "type": "address"
        },
        {
          "indexed": true,
          "internalType": "address",
          "name": "newOwner",
          "type": "address"
        }
      ],
      "name": "OwnershipTransferred",
      "type": "event"
    },
    {
      "inputs": [],
      "name": "enterLottery",
      "outputs": [],
      "stateMutability": "payable",
      "type": "function"
    },
    {
      "inputs": [
        {
          "internalType": "uint256",
          "name": "_range",
          "type": "uint256"
        }
      ],
      "name": "generateRandomNumber",
      "outputs": [
        {
          "internalType": "uint256",
          "name": "",
          "type": "uint256"
        }
      ],
      "stateMutability": "nonpayable",
      "type": "function"
    },
    {
      "inputs": [],
      "name": "getAllUsers",
      "outputs": [
        {
          "components": [
            {
              "internalType": "uint256",
              "name": "id",
              "type": "uint256"
            },
            {
              "internalType": "address payable",
              "name": "userAddress",
              "type": "address"
            }
          ],
          "internalType": "struct Lottery.User[]",
          "name": "",
          "type": "tuple[]"
        }
      ],
      "stateMutability": "view",
      "type": "function"
    },
    {
      "inputs": [],
      "name": "getCurrentLotteryBalance",
      "outputs": [
        {
          "internalType": "uint256",
          "name": "",
          "type": "uint256"
        }
      ],
      "stateMutability": "view",
      "type": "function"
    },
    {
      "inputs": [],
      "name": "getLastTimeStamp",
      "outputs": [
        {
          "internalType": "uint256",
          "name": "",
          "type": "uint256"
        }
      ],
      "stateMutability": "view",
      "type": "function"
    },
    {
      "inputs": [],
      "name": "getLatestWinnerAddress",
      "outputs": [
        {
          "internalType": "address",
          "name": "",
          "type": "address"
        }
      ],
      "stateMutability": "view",
      "type": "function"
    },
    {
      "inputs": [],
      "name": "getLatestWinnerIndex",
      "outputs": [
        {
          "internalType": "uint256",
          "name": "",
          "type": "uint256"
        }
      ],
      "stateMutability": "view",
      "type": "function"
    },
    {
      "inputs": [],
      "name": "getLotteryEntranceFees",
      "outputs": [
        {
          "internalType": "uint256",
          "name": "",
          "type": "uint256"
        }
      ],
      "stateMutability": "view",
      "type": "function"
    },
    {
      "inputs": [],
      "name": "getLotteryStatus",
      "outputs": [
        {
          "internalType": "enum Lottery.LotteryStatus",
          "name": "",
          "type": "uint8"
        }
      ],
      "stateMutability": "view",
      "type": "function"
    },
    {
      "inputs": [],
      "name": "owner",
      "outputs": [
        {
          "internalType": "address",
          "name": "",
          "type": "address"
        }
      ],
      "stateMutability": "view",
      "type": "function"
    },
    {
      "inputs": [],
      "name": "renounceOwnership",
      "outputs": [],
      "stateMutability": "nonpayable",
      "type": "function"
    },
    {
      "inputs": [],
      "name": "s_prizePool",
      "outputs": [
        {
          "internalType": "uint256",
          "name": "",
          "type": "uint256"
        }
      ],
      "stateMutability": "view",
      "type": "function"
    },
    {
      "inputs": [],
      "name": "selectWinner",
      "outputs": [],
      "stateMutability": "payable",
      "type": "function"
    },
    {
      "inputs": [
        {
          "internalType": "address",
          "name": "newOwner",
          "type": "address"
        }
      ],
      "name": "transferOwnership",
      "outputs": [],
      "stateMutability": "nonpayable",
      "type": "function"
    },
    {
      "inputs": [
        {
          "internalType": "uint256",
          "name": "",
          "type": "uint256"
        }
      ],
      "name": "users",
      "outputs": [
        {
          "internalType": "uint256",
          "name": "id",
          "type": "uint256"
        },
        {
          "internalType": "address payable",
          "name": "userAddress",
          "type": "address"
        }
      ],
      "stateMutability": "view",
      "type": "function"
    }
  ],
  "bytecode": "0x60a060405260405161001090610207565b604051809103906000f08015801561002c573d6000803e3d6000fd5b50600960016101000a81548173ffffffffffffffffffffffffffffffffffffffff021916908373ffffffffffffffffffffffffffffffffffffffff16021790555034801561007957600080fd5b50604051611cb3380380611cb3833981810160405281019061009b91906102ad565b80600073ffffffffffffffffffffffffffffffffffffffff168173ffffffffffffffffffffffffffffffffffffffff160361010e5760006040517f1e4fbdf700000000000000000000000000000000000000000000000000000000815260040161010591906102fc565b60405180910390fd5b61011d8161014160201b60201c565b50655af3107a40006004819055508160808181525050426005819055505050610317565b6000600260009054906101000a900473ffffffffffffffffffffffffffffffffffffffff16905081600260006101000a81548173ffffffffffffffffffffffffffffffffffffffff021916908373ffffffffffffffffffffffffffffffffffffffff1602179055508173ffffffffffffffffffffffffffffffffffffffff168173ffffffffffffffffffffffffffffffffffffffff167f8be0079c531659141344cd1fd0a4f28419497f9722a3daafe3b4186f6b6457e060405160405180910390a35050565b6103698061194a83390190565b600080fd5b6000819050919050565b61022c81610219565b811461023757600080fd5b50565b60008151905061024981610223565b92915050565b600073ffffffffffffffffffffffffffffffffffffffff82169050919050565b600061027a8261024f565b9050919050565b61028a8161026f565b811461029557600080fd5b50565b6000815190506102a781610281565b92915050565b600080604083850312156102c4576102c3610214565b5b60006102d28582860161023a565b92505060206102e385828601610298565b9150509250929050565b6102f68161026f565b82525050565b600060208201905061031160008301846102ed565b92915050565b608051611618610332600039600061036801526116186000f3fe6080604052600436106100e85760003560e01c80638da5cb5b1161008a578063c4dbed0811610059578063c4dbed0814610295578063d47e690a146102c0578063e2842d79146102eb578063f2fde38b14610316576100e8565b80638da5cb5b1461020a578063a697f69a14610235578063c1af578514610260578063c1c244e81461026a576100e8565b8063365b98b2116100c6578063365b98b21461014d5780634303707e1461018b578063715018a6146101c85780638bde1793146101df576100e8565b80632904edec146100ed5780632b6524cd1461011857806333a99e0414610143575b600080fd5b3480156100f957600080fd5b5061010261033f565b60405161010f9190610f0e565b60405180910390f35b34801561012457600080fd5b5061012d610347565b60405161013a9190610fa0565b60405180910390f35b61014b61035e565b005b34801561015957600080fd5b50610174600480360381019061016f9190610fec565b610738565b60405161018292919061105a565b60405180910390f35b34801561019757600080fd5b506101b260048036038101906101ad9190610fec565b61078c565b6040516101bf9190610f0e565b60405180910390f35b3480156101d457600080fd5b506101dd6107ff565b005b3480156101eb57600080fd5b506101f4610813565b60405161020191906110a4565b60405180910390f35b34801561021657600080fd5b5061021f61083d565b60405161022c91906110a4565b60405180910390f35b34801561024157600080fd5b5061024a610867565b6040516102579190610f0e565b60405180910390f35b610268610871565b005b34801561027657600080fd5b5061027f610aeb565b60405161028c9190610f0e565b60405180910390f35b3480156102a157600080fd5b506102aa610af5565b6040516102b79190610f0e565b60405180910390f35b3480156102cc57600080fd5b506102d5610aff565b6040516102e29190610f0e565b60405180910390f35b3480156102f757600080fd5b50610300610b05565b60405161030d91906111bb565b60405180910390f35b34801561032257600080fd5b5061033d60048036038101906103389190611209565b610bc4565b005b600047905090565b6000600960009054906101000a900460ff16905090565b610366610c4a565b7f0000000000000000000000000000000000000000000000000000000000000000600554426103959190611265565b10156103cd576040517ffef5f37600000000000000000000000000000000000000000000000000000000815260040160405180910390fd5b60026003805490501161040c576040517ffb89d5fe00000000000000000000000000000000000000000000000000000000815260040160405180910390fd5b6001600960006101000a81548160ff0219169083600181111561043257610431610f29565b5b0217905550600960019054906101000a900473ffffffffffffffffffffffffffffffffffffffff1673ffffffffffffffffffffffffffffffffffffffff16634303707e6003805490506040518263ffffffff1660e01b81526004016104979190610f0e565b6020604051808303816000875af11580156104b6573d6000803e3d6000fd5b505050506040513d601f19601f820116820180604052508101906104da91906112ae565b6006819055506003600654815481106104f6576104f56112db565b5b906000526020600020906002020160010160009054906101000a900473ffffffffffffffffffffffffffffffffffffffff16600760006101000a81548173ffffffffffffffffffffffffffffffffffffffff021916908373ffffffffffffffffffffffffffffffffffffffff16021790555061058c6040518060600160405280602181526020016115c260219139600654610cd1565b600760009054906101000a900473ffffffffffffffffffffffffffffffffffffffff1673ffffffffffffffffffffffffffffffffffffffff167ffccc3719c4e7444f1d005bcbabe6d63d4d812f541e1035cb4665c4c7088a7d4b476040516105f49190610f0e565b60405180910390a26000600960006101000a81548160ff0219169083600181111561062257610621610f29565b5b0217905550426005819055506003600061063c9190610e81565b60006008819055507f28a75ce8832fbc94da879208c52e102cb6ec5117ce06c9a68039ed070167dcaa60405160405180910390a16000600760009054906101000a900473ffffffffffffffffffffffffffffffffffffffff1673ffffffffffffffffffffffffffffffffffffffff16476040516106b89061133b565b60006040518083038185875af1925050503d80600081146106f5576040519150601f19603f3d011682016040523d82523d6000602084013e6106fa565b606091505b5050905080610735576040517ff12c5f9200000000000000000000000000000000000000000000000000000000815260040160405180910390fd5b50565b6003818154811061074857600080fd5b90600052602060002090600202016000915090508060000154908060010160009054906101000a900473ffffffffffffffffffffffffffffffffffffffff16905082565b60008060008154809291906107a090611350565b9190505550600042336000546040516020016107be93929190611401565b6040516020818303038152906040528051906020012060001c905082816107e5919061146d565b60018190555082816107f7919061146d565b915050919050565b610807610c4a565b6108116000610d6d565b565b6000600760009054906101000a900473ffffffffffffffffffffffffffffffffffffffff16905090565b6000600260009054906101000a900473ffffffffffffffffffffffffffffffffffffffff16905090565b6000600454905090565b6108b56040518060400160405280601581526020017f546865206172726179206c656e677468206973203a0000000000000000000000815250600380549050610cd1565b6108f66040518060400160405280601281526020017f54686520656e7472616e636520666565203a0000000000000000000000000000815250600454610cd1565b60018081111561090957610908610f29565b5b600960009054906101000a900460ff16600181111561092b5761092a610f29565b5b03610962576040517f1149a3cf00000000000000000000000000000000000000000000000000000000815260040160405180910390fd5b6005600380549050106109a1576040517f4d88024d00000000000000000000000000000000000000000000000000000000815260040160405180910390fd5b60045434146109dc576040517f06b66bba00000000000000000000000000000000000000000000000000000000815260040160405180910390fd5b6000604051806040016040528060038054905081526020013373ffffffffffffffffffffffffffffffffffffffff168152509050600454600854610a20919061149e565b60088190555060038190806001815401808255809150506001900390600052602060002090600202016000909190919091506000820151816000015560208201518160010160006101000a81548173ffffffffffffffffffffffffffffffffffffffff021916908373ffffffffffffffffffffffffffffffffffffffff16021790555050503373ffffffffffffffffffffffffffffffffffffffff167fe7800a25a0f7eb6849bdf8b796d7583f42b14b93fa2a84adc356fbd2effb54a060405160405180910390a250565b6000600554905090565b6000600654905090565b60085481565b60606003805480602002602001604051908101604052809291908181526020016000905b82821015610bbb5783829060005260206000209060020201604051806040016040529081600082015481526020016001820160009054906101000a900473ffffffffffffffffffffffffffffffffffffffff1673ffffffffffffffffffffffffffffffffffffffff1673ffffffffffffffffffffffffffffffffffffffff168152505081526020019060010190610b29565b50505050905090565b610bcc610c4a565b600073ffffffffffffffffffffffffffffffffffffffff168173ffffffffffffffffffffffffffffffffffffffff1603610c3e5760006040517f1e4fbdf7000000000000000000000000000000000000000000000000000000008152600401610c3591906110a4565b60405180910390fd5b610c4781610d6d565b50565b610c52610e33565b73ffffffffffffffffffffffffffffffffffffffff16610c7061083d565b73ffffffffffffffffffffffffffffffffffffffff1614610ccf57610c93610e33565b6040517f118cdaa7000000000000000000000000000000000000000000000000000000008152600401610cc691906110a4565b60405180910390fd5b565b610d698282604051602401610ce7929190611562565b6040516020818303038152906040527fb60e72cc000000000000000000000000000000000000000000000000000000007bffffffffffffffffffffffffffffffffffffffffffffffffffffffff19166020820180517bffffffffffffffffffffffffffffffffffffffffffffffffffffffff8381831617835250505050610e3b565b5050565b6000600260009054906101000a900473ffffffffffffffffffffffffffffffffffffffff16905081600260006101000a81548173ffffffffffffffffffffffffffffffffffffffff021916908373ffffffffffffffffffffffffffffffffffffffff1602179055508173ffffffffffffffffffffffffffffffffffffffff168173ffffffffffffffffffffffffffffffffffffffff167f8be0079c531659141344cd1fd0a4f28419497f9722a3daafe3b4186f6b6457e060405160405180910390a35050565b600033905090565b610e5281610e4a610e55610e76565b63ffffffff16565b50565b60006a636f6e736f6c652e6c6f679050600080835160208501845afa505050565b610ea5819050919050565b5080546000825560020290600052602060002090810190610ea29190610eaf565b50565b610ead611592565b565b5b80821115610ef1576000808201600090556001820160006101000a81549073ffffffffffffffffffffffffffffffffffffffff021916905550600201610eb0565b5090565b6000819050919050565b610f0881610ef5565b82525050565b6000602082019050610f236000830184610eff565b92915050565b7f4e487b7100000000000000000000000000000000000000000000000000000000600052602160045260246000fd5b60028110610f6957610f68610f29565b5b50565b6000819050610f7a82610f58565b919050565b6000610f8a82610f6c565b9050919050565b610f9a81610f7f565b82525050565b6000602082019050610fb56000830184610f91565b92915050565b600080fd5b610fc981610ef5565b8114610fd457600080fd5b50565b600081359050610fe681610fc0565b92915050565b60006020828403121561100257611001610fbb565b5b600061101084828501610fd7565b91505092915050565b600073ffffffffffffffffffffffffffffffffffffffff82169050919050565b600061104482611019565b9050919050565b61105481611039565b82525050565b600060408201905061106f6000830185610eff565b61107c602083018461104b565b9392505050565b600061108e82611019565b9050919050565b61109e81611083565b82525050565b60006020820190506110b96000830184611095565b92915050565b600081519050919050565b600082825260208201905092915050565b6000819050602082019050919050565b6110f481610ef5565b82525050565b61110381611039565b82525050565b60408201600082015161111f60008501826110eb565b50602082015161113260208501826110fa565b50505050565b60006111448383611109565b60408301905092915050565b6000602082019050919050565b6000611168826110bf565b61117281856110ca565b935061117d836110db565b8060005b838110156111ae5781516111958882611138565b97506111a083611150565b925050600181019050611181565b5085935050505092915050565b600060208201905081810360008301526111d5818461115d565b905092915050565b6111e681611083565b81146111f157600080fd5b50565b600081359050611203816111dd565b92915050565b60006020828403121561121f5761121e610fbb565b5b600061122d848285016111f4565b91505092915050565b7f4e487b7100000000000000000000000000000000000000000000000000000000600052601160045260246000fd5b600061127082610ef5565b915061127b83610ef5565b925082820390508181111561129357611292611236565b5b92915050565b6000815190506112a881610fc0565b92915050565b6000602082840312156112c4576112c3610fbb565b5b60006112d284828501611299565b91505092915050565b7f4e487b7100000000000000000000000000000000000000000000000000000000600052603260045260246000fd5b600081905092915050565b50565b600061132560008361130a565b915061133082611315565b600082019050919050565b600061134682611318565b9150819050919050565b600061135b82610ef5565b91507fffffffffffffffffffffffffffffffffffffffffffffffffffffffffffffffff820361138d5761138c611236565b5b600182019050919050565b6000819050919050565b6113b36113ae82610ef5565b611398565b82525050565b60008160601b9050919050565b60006113d1826113b9565b9050919050565b60006113e3826113c6565b9050919050565b6113fb6113f682611083565b6113d8565b82525050565b600061140d82866113a2565b60208201915061141d82856113ea565b60148201915061142d82846113a2565b602082019150819050949350505050565b7f4e487b7100000000000000000000000000000000000000000000000000000000600052601260045260246000fd5b600061147882610ef5565b915061148383610ef5565b9250826114935761149261143e565b5b828206905092915050565b60006114a982610ef5565b91506114b483610ef5565b92508282019050808211156114cc576114cb611236565b5b92915050565b600081519050919050565b600082825260208201905092915050565b60005b8381101561150c5780820151818401526020810190506114f1565b60008484015250505050565b6000601f19601f8301169050919050565b6000611534826114d2565b61153e81856114dd565b935061154e8185602086016114ee565b61155781611518565b840191505092915050565b6000604082019050818103600083015261157c8185611529565b905061158b6020830184610eff565b9392505050565b7f4e487b7100000000000000000000000000000000000000000000000000000000600052605160045260246000fdfe546865206d6f737420726563656e742077696e6e657220696e646578206973203aa26469706673582212204454b27bd3f88e97e8a3ab28306115d4623438a9fa211dbb1ffc6b6774dfb64964736f6c634300081b00336080604052348015600f57600080fd5b5061034a8061001f6000396000f3fe608060405234801561001057600080fd5b506004361061002b5760003560e01c80634303707e14610030575b600080fd5b61004a6004803603810190610045919061010e565b610060565b604051610057919061014a565b60405180910390f35b600080600081548092919061007490610194565b91905055506000423360005460405160200161009293929190610277565b6040516020818303038152906040528051906020012060001c905082816100b991906102e3565b60018190555082816100cb91906102e3565b915050919050565b600080fd5b6000819050919050565b6100eb816100d8565b81146100f657600080fd5b50565b600081359050610108816100e2565b92915050565b600060208284031215610124576101236100d3565b5b6000610132848285016100f9565b91505092915050565b610144816100d8565b82525050565b600060208201905061015f600083018461013b565b92915050565b7f4e487b7100000000000000000000000000000000000000000000000000000000600052601160045260246000fd5b600061019f826100d8565b91507fffffffffffffffffffffffffffffffffffffffffffffffffffffffffffffffff82036101d1576101d0610165565b5b600182019050919050565b6000819050919050565b6101f76101f2826100d8565b6101dc565b82525050565b600073ffffffffffffffffffffffffffffffffffffffff82169050919050565b6000610228826101fd565b9050919050565b60008160601b9050919050565b60006102478261022f565b9050919050565b60006102598261023c565b9050919050565b61027161026c8261021d565b61024e565b82525050565b600061028382866101e6565b6020820191506102938285610260565b6014820191506102a382846101e6565b602082019150819050949350505050565b7f4e487b7100000000000000000000000000000000000000000000000000000000600052601260045260246000fd5b60006102ee826100d8565b91506102f9836100d8565b925082610309576103086102b4565b5b82820690509291505056fea26469706673582212205852515df42b1ffe0cebd8a00fafcbc95179e7d9cc38f083e5ea77b2b43e931364736f6c634300081b0033",
  "linkReferences": {},
  "deployedLinkReferences": {}
}