{
  "_format": "hh-sol-artifact-1",
  "contractName": "ToDo",
  "sourceName": "contracts/ToDo.sol",
  "abi": [
    {
      "anonymous": false,
      "inputs": [
        {
          "indexed": false,
          "internalType": "address",
          "name": "owner",
          "type": "address"
        },
        {
          "indexed": false,
          "internalType": "string",
          "name": "taskAdded",
          "type": "string"
        }
      ],
      "name": "AddedTask",
      "type": "event"
    },
    {
      "anonymous": false,
      "inputs": [
        {
          "indexed": false,
          "internalType": "address",
          "name": "owner",
          "type": "address"
        },
        {
          "indexed": false,
          "internalType": "string",
          "name": "taskDeleted",
          "type": "string"
        }
      ],
      "name": "DeletedTask",
      "type": "event"
    },
    {
      "inputs": [
        {
          "internalType": "string",
          "name": "task",
          "type": "string"
        }
      ],
      "name": "addTask",
      "outputs": [],
      "stateMutability": "nonpayable",
      "type": "function"
    },
    {
      "inputs": [
        {
          "internalType": "uint256",
          "name": "_id",
          "type": "uint256"
        }
      ],
      "name": "deleteTask",
      "outputs": [],
      "stateMutability": "nonpayable",
      "type": "function"
    },
    {
      "inputs": [],
      "name": "getAllTask",
      "outputs": [
        {
          "components": [
            {
              "internalType": "uint256",
              "name": "id",
              "type": "uint256"
            },
            {
              "internalType": "string",
              "name": "task",
              "type": "string"
            },
            {
              "internalType": "bool",
              "name": "isDeleted",
              "type": "bool"
            }
          ],
          "internalType": "struct ToDo.userTask[]",
          "name": "",
          "type": "tuple[]"
        }
      ],
      "stateMutability": "view",
      "type": "function"
    },
    {
      "inputs": [
        {
          "internalType": "address",
          "name": "",
          "type": "address"
        },
        {
          "internalType": "uint256",
          "name": "",
          "type": "uint256"
        }
      ],
      "name": "tasks",
      "outputs": [
        {
          "internalType": "uint256",
          "name": "id",
          "type": "uint256"
        },
        {
          "internalType": "string",
          "name": "task",
          "type": "string"
        },
        {
          "internalType": "bool",
          "name": "isDeleted",
          "type": "bool"
        }
      ],
      "stateMutability": "view",
      "type": "function"
    },
    {
      "inputs": [],
      "name": "testContract",
      "outputs": [
        {
          "internalType": "string",
          "name": "",
          "type": "string"
        }
      ],
      "stateMutability": "pure",
      "type": "function"
    }
  ],
  "bytecode": "0x6080604052348015600f57600080fd5b5061103c8061001f6000396000f3fe608060405234801561001057600080fd5b50600436106100575760003560e01c80631bbaf3cf1461005c578063560f31921461007a57806367238562146100965780637149d2e4146100b2578063c36631b4146100e4575b600080fd5b610064610102565b6040516100719190610827565b60405180910390f35b610094600480360381019061008f9190610889565b6102d8565b005b6100b060048036038101906100ab91906109eb565b6103ee565b005b6100cc60048036038101906100c79190610a92565b610538565b6040516100db93929190610b3a565b60405180910390f35b6100ec610614565b6040516100f99190610b78565b60405180910390f35b606060008060003373ffffffffffffffffffffffffffffffffffffffff1673ffffffffffffffffffffffffffffffffffffffff1681526020019081526020016000208054905003610188576040517f08c379a000000000000000000000000000000000000000000000000000000000815260040161017f90610be6565b60405180910390fd5b6000803373ffffffffffffffffffffffffffffffffffffffff1673ffffffffffffffffffffffffffffffffffffffff168152602001908152602001600020805480602002602001604051908101604052809291908181526020016000905b828210156102cf57838290600052602060002090600302016040518060600160405290816000820154815260200160018201805461022390610c35565b80601f016020809104026020016040519081016040528092919081815260200182805461024f90610c35565b801561029c5780601f106102715761010080835404028352916020019161029c565b820191906000526020600020905b81548152906001019060200180831161027f57829003601f168201915b505050505081526020016002820160009054906101000a900460ff161515151581525050815260200190600101906101e6565b50505050905090565b60016000803373ffffffffffffffffffffffffffffffffffffffff1673ffffffffffffffffffffffffffffffffffffffff168152602001908152602001600020828154811061032a57610329610c66565b5b906000526020600020906003020160020160006101000a81548160ff0219169083151502179055507f5bcc1519283883acf31186468742a340b1934a5d0bcb64283e66a4b545fd0b5c336000803373ffffffffffffffffffffffffffffffffffffffff1673ffffffffffffffffffffffffffffffffffffffff16815260200190815260200160002083815481106103c4576103c3610c66565b5b90600052602060002090600302016001016040516103e3929190610d3d565b60405180910390a150565b600060405180606001604052806000803373ffffffffffffffffffffffffffffffffffffffff1673ffffffffffffffffffffffffffffffffffffffff1681526020019081526020016000208054905081526020018381526020016000151581525090506000803373ffffffffffffffffffffffffffffffffffffffff1673ffffffffffffffffffffffffffffffffffffffff1681526020019081526020016000208190806001815401808255809150506001900390600052602060002090600302016000909190919091506000820151816000015560208201518160010190816104d89190610f04565b5060408201518160020160006101000a81548160ff02191690831515021790555050507f8ea7f4c3d0136bfdf37681abad4b68ac12708075580e8b31eb2ce601a1a4cce5338360405161052c929190610fd6565b60405180910390a15050565b6000602052816000526040600020818154811061055457600080fd5b90600052602060002090600302016000915091505080600001549080600101805461057e90610c35565b80601f01602080910402602001604051908101604052809291908181526020018280546105aa90610c35565b80156105f75780601f106105cc576101008083540402835291602001916105f7565b820191906000526020600020905b8154815290600101906020018083116105da57829003601f168201915b5050505050908060020160009054906101000a900460ff16905083565b60606040518060400160405280600581526020017f546f6b656e000000000000000000000000000000000000000000000000000000815250905090565b600081519050919050565b600082825260208201905092915050565b6000819050602082019050919050565b6000819050919050565b6106908161067d565b82525050565b600081519050919050565b600082825260208201905092915050565b60005b838110156106d05780820151818401526020810190506106b5565b60008484015250505050565b6000601f19601f8301169050919050565b60006106f882610696565b61070281856106a1565b93506107128185602086016106b2565b61071b816106dc565b840191505092915050565b60008115159050919050565b61073b81610726565b82525050565b60006060830160008301516107596000860182610687565b506020830151848203602086015261077182826106ed565b91505060408301516107866040860182610732565b508091505092915050565b600061079d8383610741565b905092915050565b6000602082019050919050565b60006107bd82610651565b6107c7818561065c565b9350836020820285016107d98561066d565b8060005b8581101561081557848403895281516107f68582610791565b9450610801836107a5565b925060208a019950506001810190506107dd565b50829750879550505050505092915050565b6000602082019050818103600083015261084181846107b2565b905092915050565b6000604051905090565b600080fd5b600080fd5b6108668161067d565b811461087157600080fd5b50565b6000813590506108838161085d565b92915050565b60006020828403121561089f5761089e610853565b5b60006108ad84828501610874565b91505092915050565b600080fd5b600080fd5b7f4e487b7100000000000000000000000000000000000000000000000000000000600052604160045260246000fd5b6108f8826106dc565b810181811067ffffffffffffffff82111715610917576109166108c0565b5b80604052505050565b600061092a610849565b905061093682826108ef565b919050565b600067ffffffffffffffff821115610956576109556108c0565b5b61095f826106dc565b9050602081019050919050565b82818337600083830152505050565b600061098e6109898461093b565b610920565b9050828152602081018484840111156109aa576109a96108bb565b5b6109b584828561096c565b509392505050565b600082601f8301126109d2576109d16108b6565b5b81356109e284826020860161097b565b91505092915050565b600060208284031215610a0157610a00610853565b5b600082013567ffffffffffffffff811115610a1f57610a1e610858565b5b610a2b848285016109bd565b91505092915050565b600073ffffffffffffffffffffffffffffffffffffffff82169050919050565b6000610a5f82610a34565b9050919050565b610a6f81610a54565b8114610a7a57600080fd5b50565b600081359050610a8c81610a66565b92915050565b60008060408385031215610aa957610aa8610853565b5b6000610ab785828601610a7d565b9250506020610ac885828601610874565b9150509250929050565b610adb8161067d565b82525050565b600082825260208201905092915050565b6000610afd82610696565b610b078185610ae1565b9350610b178185602086016106b2565b610b20816106dc565b840191505092915050565b610b3481610726565b82525050565b6000606082019050610b4f6000830186610ad2565b8181036020830152610b618185610af2565b9050610b706040830184610b2b565b949350505050565b60006020820190508181036000830152610b928184610af2565b905092915050565b7f4c69737420697320656d70747900000000000000000000000000000000000000600082015250565b6000610bd0600d83610ae1565b9150610bdb82610b9a565b602082019050919050565b60006020820190508181036000830152610bff81610bc3565b9050919050565b7f4e487b7100000000000000000000000000000000000000000000000000000000600052602260045260246000fd5b60006002820490506001821680610c4d57607f821691505b602082108103610c6057610c5f610c06565b5b50919050565b7f4e487b7100000000000000000000000000000000000000000000000000000000600052603260045260246000fd5b610c9e81610a54565b82525050565b60008190508160005260206000209050919050565b60008154610cc681610c35565b610cd08186610ae1565b94506001821660008114610ceb5760018114610d0157610d34565b60ff198316865281151560200286019350610d34565b610d0a85610ca4565b60005b83811015610d2c57815481890152600182019150602081019050610d0d565b808801955050505b50505092915050565b6000604082019050610d526000830185610c95565b8181036020830152610d648184610cb9565b90509392505050565b60006020601f8301049050919050565b600082821b905092915050565b600060088302610dba7fffffffffffffffffffffffffffffffffffffffffffffffffffffffffffffffff82610d7d565b610dc48683610d7d565b95508019841693508086168417925050509392505050565b6000819050919050565b6000610e01610dfc610df78461067d565b610ddc565b61067d565b9050919050565b6000819050919050565b610e1b83610de6565b610e2f610e2782610e08565b848454610d8a565b825550505050565b600090565b610e44610e37565b610e4f818484610e12565b505050565b5b81811015610e7357610e68600082610e3c565b600181019050610e55565b5050565b601f821115610eb857610e8981610ca4565b610e9284610d6d565b81016020851015610ea1578190505b610eb5610ead85610d6d565b830182610e54565b50505b505050565b600082821c905092915050565b6000610edb60001984600802610ebd565b1980831691505092915050565b6000610ef48383610eca565b9150826002028217905092915050565b610f0d82610696565b67ffffffffffffffff811115610f2657610f256108c0565b5b610f308254610c35565b610f3b828285610e77565b600060209050601f831160018114610f6e5760008415610f5c578287015190505b610f668582610ee8565b865550610fce565b601f198416610f7c86610ca4565b60005b82811015610fa457848901518255600182019150602085019450602081019050610f7f565b86831015610fc15784890151610fbd601f891682610eca565b8355505b6001600288020188555050505b505050505050565b6000604082019050610feb6000830185610c95565b8181036020830152610ffd8184610af2565b9050939250505056fea2646970667358221220423bbaf1c04d1382be63118e86acaefa4f215c69e68255631b33a479dd80432964736f6c634300081c0033",
  "linkReferences": {},
  "deployedLinkReferences": {}
}